:100000008EC0A8C0A7C0A6C0A5C0A4C0A3C0A2C0DF
:10001000A1C070C4E1C49EC09DC09CC09BC0777746
:1000200077777767570700000000FF0000000000A7
:100030007ECFFF7E00003C7EE7FFFFFF7E3C7776B1
:1000400075707767570700183C66663C1800589C27
:100050003C3E3E137FB7B77F533E9E5C1C188063C7
:10006000E097F00FE80FEC1F1E17BF3B3FDA3FDAB7
:10007000BF7B1E37EC1FE897F067E00780030000A6
:100080000000E038E0312033202D607D307CB06C02
:10009000F0FC60FCC07D806D00C800000000000026
:1000A0000000000C200C201960BD30F8B0FCF03CC2
:1000B000607CC07D806100C0000000000000000086
:1000C00000000000000010009058B07418FE58F0B6
:1000D00078FE30F0E03EC01C000000000000000090
:1000E0000000000C107C906CB06C187E583E78308C
:1000F00030BEE0FEC0FE006C000C000000000000FE
:1001000000000000003020B820FD60E1303CB03C31
:10011000F0E060FCC0BD8039000000000000112448
:100120001FBECFE5D2E0DEBFCDBF10E0A0E6B0E05D
:10013000EEEEFCE102C005900D92A23CB107D9F7AA
:1001400021E0A2ECB0E001C01D92A33AB207E1F7B2
:1001500059DACBCD55CFCF93C82F2DE036E649E104
:1001600050E06091C7007091C8008091C9009091E3
:10017000CA0033DDDC01CB01815A9C40A149B34C5C
:10018000BC01CD01882799276093C7007093C800F0
:100190008093C9009093CA002C2F30E040E050E0DB
:1001A00055DD862FCF91089590E120E030E08770F3
:1001B00067E8379887B966B9369A3699FECF44B161
:1001C00055B1240F351F9150A1F7C90124E0969530
:1001D00087952A95E1F708952F923F924F925F926B
:1001E0006F927F928F929F92AF92BF92CF92DF9247
:1001F000EF92FF920F931F93CF93DF93CDB7DEB7AC
:1002000067970FB6F894DEBF0FBECDBF6C015B01E0
:10021000F42E3801803891050CF091C0842F90E0C5
:1002200044275527481B590B4C155D050CF087C01A
:10023000603471050CF083C0D7FE06C05C2D51956B
:10024000598BC12CD12C01C0198AA601480F591F06
:10025000413851051CF030E8F32EFC18B7FE0DC0F4
:10026000B194A194B10853E0B594A7945A95E1F7DD
:1002700011E01A0DA12CB12C01C010E0822E869441
:1002800086948694A501420F511D413451054CF0CE
:10029000950143E0359527954A95E1F708E0021B63
:1002A00001C0082D212F30E03B8B2A8B3989232E6A
:1002B000312C912CAC01415051095D8B4C8B8F2D11
:1002C00090E09C01221933093F8B2E8B1017B8F553
:1002D000412E512CB2014A895B89641B750B83E066
:1002E000660F771F8A95E1F76A0D7B1DC601E0DB7B
:1002F00049894F15E8F4242F30E0E11002C0C9010C
:1003000004C08C899D89821B930BB40155DC840D3C
:10031000951DF301E80FF91FE49122193309A1E0BB
:10032000B0E0AC0FBD1FA20FB31FEC934F5FE1CF46
:100330006E897F89CE010196D4DB1F5FC7CF679698
:100340000FB6F894DEBF0FBECDBFDF91CF911F91E6
:100350000F91FF90EF90DF90CF90BF90AF909F9064
:100360008F907F906F905F904F903F902F90089567
:10037000282F30E0C90166E170E01EDCFC01E95A7B
:10038000FE4F83E0848781E1818B17868081918194
:1003900001969183808308959C018091630184304C
:1003A00059F080917901843051F080918F0184302F
:1003B000E1F482E090E005C080E090E002C081E0DE
:1003C00090E066E170E0F8DBFC01E95AFE4F83E063
:1003D000220F331F8A95E1F7318320831382128223
:1003E00081E08787108A118A148608956F927F9220
:1003F0008F929F92AF92BF92CF92DF92EF92FF9235
:100400000F931F93CF93DF938C01C82FCF7383E09B
:10041000A2DE25E0922E980E8C2E712CEC2EF12C63
:100420008FE0E80EF11C66246394CC24C394D12C95
:10043000580188E0A80EB11CC82DD0E0EC16FD06CE
:100440000CF443C0C650DF4F188285E084DE811172
:1004500001C06882711036C0892D883058F4960129
:10046000082E01C0220F0A94EAF79881292B2883CD
:100470008F5FF3CF8AE06FDE811109C084E06BDE0D
:1004800001151105C1F092E0792E780E14C085E0B7
:1004900062DE811110C00115110569F082E05BDE9A
:1004A000811105C086E0891528F0939404C081E08D
:1004B000891508F49A9480E14EDE811104C0C501CB
:1004C0006BDF01C07A948394B7CFDF91CF911F91F6
:1004D0000F91FF90EF90DF90CF90BF90AF909F90E3
:1004E0008F907F906F900895CF9340E050E060E050
:1004F00070E08CE354DA80E01DDB40E050E060E027
:1005000070E08DE34CDA80E015DBE1E4F1E023E01C
:10051000248B82E0858BA7E5B1E054962C93549709
:1005200055968C93559794E01C969C931C979A969D
:100530002C939A979B968C939B9792969C939297C9
:100540002093970180939801D8969C9325E030E002
:100550003183208313821282148685871786108A3E
:10056000118AC1E0C687C38BE4EEF0E0C48BC58B73
:100570009487BC9AB99A80E090E038DF80E190E0FF
:1005800035DF80E290E032DF80E390E02FDF88E12A
:1005900090E09093A2018093A101EAE3F1E016823A
:1005A000C093A0011092E300118210821282C383D3
:1005B0001ABC19BE10BE1CBC18BECF9108959091F4
:1005C000E300911111C01092CD001092CE00109254
:1005D000CF001092D00010929B0180939A0181E08D
:1005E00080939D018093E30008954F925F926F92F4
:1005F0007F928F929F92AF92BF92CF92DF92EF92B3
:10060000FF920F93CF93DF936B017C0149015A0155
:10061000672B682B692B41F4D0E0CCE2CC2EDD2493
:10062000D394E12CF12C01C0D1E060E074E284EFBE
:1006300090E0A7019601220F331F441F551F06DBD0
:10064000002311F0C1E03DC0213081E038074105B1
:100650005105F0F1A3E05695479537952795AA9552
:10066000D1F7213081E038074105510598F1F3E0D9
:100670005695479537952795FA95D1F7213081E022
:1006800038074105510540F1E2E056954795379509
:100690002795EA95D1F7213081E0380741055105CA
:1006A000E8F072E056954795379527957A95D1F7FA
:1006B000C5E015C0CF3099F0CF5F56954795379577
:1006C00027952F3F31054105510509F098F707C0DF
:1006D000C1E005C0C2E003C0C3E001C0C4E029011D
:1006E0003A0181E0481A510861087108C501B40156
:1006F000660F771F881F991FA7019601011113C06C
:100700006CDA28EE33E040E050E0A0DA2093CD0030
:100710003093CE004093CF005093D000DD2329F1D9
:1007200082E18ABD29C059DA28EE33E040E050E08A
:100730008DDA2093D1003093D2004093D3005093B0
:10074000D40060E271EA87E090E0A70196017EDACA
:100750002093D5003093D6004093D7005093D80013
:10076000DD2381F080E18CBD11C08AB582608ABD35
:100770008AB58F7E8ABDC198C3BF12BE49BC89B7F6
:1007800080610AC08CB580718CBDC498C068C0BF40
:100790001FBC4DBC89B7806289BFDF91CF910F919B
:1007A000FF90EF90DF90CF90BF90AF909F908F9091
:1007B0007F906F905F904F900895FF920F931F93DB
:1007C000CF93DF93FC01F680F1100DC04091D10072
:1007D0005091D2006091D3007091D400452B462BEC
:1007E000472BB1F081C0F1E0FF127EC04091CD00F7
:1007F0005091CE006091CF007091D000452B462BD8
:10080000472B09F071C02091E300213009F06CC042
:10081000EC018B81811136C08C819D8163E070E099
:1008200001DA7D836C839B0140E050E0F11002C04F
:1008300001E001C000E060E070E0CB01D6DE1A818B
:100840001F5F1A83888190E063E070E0B5D902965B
:100850002FDA1817A0F01A8289818F5F89839E8111
:10086000913019F41092E30004C08C3010F081E054
:100870008983E981F0E0E758FF4F8081888381E038
:100880008B8332C0813081F5888190E063E070E035
:1008900093D916DAF11005C0009161001091620041
:1008A00002C008EE13E02A8130E0220F331F820FCE
:1008B000931F06DABC017F71892F9927829586954F
:1008C0008770980102C0369527958A95E2F73D8397
:1008D0002C8340E050E080E090E0F11002C001E0A5
:1008E00001C000E082DE1B82DF91CF911F910F914A
:1008F000FF9008951F920F920FB60F9211244F93FD
:100900005F936F937F938F939F93AF93BF938091E8
:10091000D1009091D200A091D300B091D400892B46
:100920008A2B8B2B81F18091D1009091D200A091E4
:10093000D300B091D400181619061A061B061CF530
:100940008091D1009091D200A091D300B091D400B9
:100950000197A109B1098093D1009093D200A0938F
:10096000D300B093D4008091D1009091D200A09197
:10097000D300B091D400892B8A2B8B2B21F48CB51A
:100980008F7E8CBD1CC04091D5005091D6006091E7
:10099000D7007091D8008091D9009091DA00A09191
:1009A000DB00B091DC00840F951FA61FB71F80935A
:1009B000D9009093DA00A093DB00B093DC00BF91E4
:1009C000AF919F918F917F916F915F914F910F9018
:1009D0000FBE0F901F9018951F920F920FB60F9297
:1009E00011248F939F93AF93BF938091CD009091EB
:1009F000CE00A091CF00B091D000892B8A2B8B2BF9
:100A000091F18091CD009091CE00A091CF00B09156
:100A1000D000181619061A061B062CF58091CD0079
:100A20009091CE00A091CF00B091D0000197A10984
:100A3000B1098093CD009093CE00A093CF00B093E6
:100A4000D0008091CD009091CE00A091CF00B091C8
:100A5000D000892B8A2B8B2B31F48AB58F7E8ABDEF
:100A600089B78F7E89BFBF91AF919F918F910F9072
:100A70000FBE0F901F901895AF92CF92EF92FF92FA
:100A80000F931F93480F591F4017510784F00C0D07
:100A9000111D081719075CF0260F371F2E153F058B
:100AA00034F0EA0CF11C81E0E616F7060CF480E065
:100AB0001F910F91FF90EF90CF90AF900895E0912C
:100AC0004101F0914201DF011C96A817B907C4F05B
:100AD0003396840F911DE817F90794F48091430130
:100AE00090914401AC01445F5F4F4617570744F0B3
:100AF00049505109620F711D81E0461757070CF0EC
:100B000080E008958F73E82FF0E0E650FF4F4081BA
:100B100050E021E030E0822FBA01022E02C075952C
:100B200067950A94E2F760FF04C0213049F08250D3
:100B300008952F5F3F4F2830310569F788E0089509
:100B400080E00895FC019585992391F080898F5F5D
:100B5000808B87FD04C0913011F482E0858782810B
:100B600093818135910524F084E0848788E027CD46
:100B70000895EF920F931F9380914E01811131C020
:100B800080914D01811111C0609143017091440128
:100B90008091410190914201E091E100F091E200E9
:100BA000E0904F010EEF10E041C08150823008F01C
:100BB00042C02091520160914301709144018091A3
:100BC000410190914201E091E100F091E200E0905A
:100BD0004F01233018F40EED10E028C00EEB10E0AA
:100BE00025C0813089F46091430170914401809166
:100BF000410190914201E091E100F091E200E0902A
:100C00004F010EE910E012C08230A9F46091430157
:100C1000709144018091410190914201E091E10085
:100C2000F091E200E0904F010EE710E020E140E19A
:100C30008E1B9F0BD1DA1F910F91EF9008951F9398
:100C4000CF93DF93CDB7DEB760970FB6F894DEBFD2
:100C50000FBECDBF142F9C01240F311D1216130699
:100C60002CF58038910514F597FF03C0180F80E02C
:100C700090E09C01210F311D2138310514F010E85E
:100C8000181B9B01295F3F4F2734310578F477FF0C
:100C900002C060E070E00CD7CE01019620E1FC01BB
:100CA00011922A95E9F7612F70E01BD760960FB675
:100CB000F894DEBF0FBECDBFDF91CF911F91089595
:100CC000DF92EF92FF920F931F93CF93DF93442312
:100CD00011F013E001C012E08F73282F30E0A9015A
:100CE00046505F4F7A01FA01008100FF41C0D62EC5
:100CF00009DF8830E9F18D15D8F1C82FD0E0812FB8
:100D000090E08D0D911DC817D90794F50E7FF7015E
:100D1000008386E054DC8091CB008F5F8093CB0012
:100D20008091E1009091E20080589F4F2091410115
:100D3000309142018217930718F48DE38093990153
:100D400033E0CC0FDD1F3A95E1F700E010E040E121
:100D5000BE01C80124E0880F991F2A95E1F76FDFD3
:100D60000F5F1F4F0830110591F78CE380939901B5
:100D7000DF91CF911F910F91FF90EF90DF90089539
:100D8000DF92EF92FF920F931F93CF93DF93EC01CB
:100D90008889893F14F489EF888BDF84E881F981A1
:100DA000ED0DF11DD7FCFA9588892A813B81280F2A
:100DB000311D87FD3A951A8AAF01452F550F550B06
:100DC0004595CF0103E0959587950A95E1F7182F92
:100DD0001F73B90183E0759567958A95E1F7022F36
:100DE00007708E2F8770F82E8C89DB01BB270023BC
:100DF00021F090E0880F991F019601C0880FAA95F5
:100E0000EAF737FD0CC02133310514F4E62E09C092
:100E1000188A80E0A6E0EA2E20E330E002C080E0FD
:100E2000E12C8E7F612F70E01D14E4F4AD89A10FD9
:100E3000AF73B0E0A650BF4F9C91892399F1542F16
:100E40004427550FF3E0660F771FFA95E1F7460F39
:100E5000571F59834883112311F0115001C01FE31C
:100E600082E01DC0DD2001F1DB01A650BF4F9C9147
:100E70008923C1F01F5F103419F44F5F5F4F10E0FA
:100E8000542F4427550F812F90E073E0880F991F4E
:100E90007A95E1F7480F591F5983488388E08A8B78
:100EA0001F8602C0F983E8836E2D70E04889E12F28
:100EB000F0E047FD3FC08D89680F711D81E090E033
:100EC00001C0880F6A95EAF78E7FE650FF4F908148
:100ED0009823A1F4E1E0E10FEF73F0E0E650FF4F5B
:100EE0009081982359F4FF20E9F0E2E0E10FEF73DD
:100EF000F0E0E650FF4F90818923A1F0188A1D860B
:100F000085E08E1510F446E0E42E8E2D90E033E05F
:100F1000880F991F3A95E1F79B838A838A898460B9
:100F20008A8B42C041113EC08D8581113BC082E059
:100F30008D8738C081E090E00E2C01C0880F0A94A4
:100F4000EAF78E7FE650FF4F90819823A1F4E1E00D
:100F5000E10FEF73F0E0E650FF4F9081982359F4D2
:100F6000FF2001F1E2E0E10FEF73F0E0E650FF4F08
:100F700090818923B9F0188A82E08D87E3948E2DC1
:100F800090E023E0880F991F2A95E1F79B838A83DD
:100F90008B89882311F088E012DB8A8981608A8B33
:100FA000188A02C03B832A838B898823B9F0402F9B
:100FB0006E2D812F85DE402F6E2D81E0810F80DE2A
:100FC000FF2061F0402F6E2D82E0810FDF91CF91E5
:100FD0001F910F91FF90EF90DF9072CEDF91CF9134
:100FE0001F910F91FF90EF90DF9008950F931F9343
:100FF000CF93DF938B01C82FD0E0CC0FDD1FC60F3E
:10100000D71F8C819D81FB01208131814091E100BE
:101010005091E200241B350B688579852817390724
:1010200029F4228133812617370751F040E107DE8A
:1010300068857985685F7F4F40E18C819D81FFDD08
:10104000F801808191812091E1003091E200821BC2
:10105000930B9D838C838281938199878887DF910D
:10106000CF911F910F9108951F93CF93DF9380E04D
:101070009BD8EC0183E098D89C018AE094E08C1B1B
:101080009D0BE6E1F0E0BF01CDD5162F8091C600A3
:10109000811168C0C9010B96BF01C4D5EB019B014A
:1010A000332760FF08C082E080934D0181E0809388
:1010B0004F0183E012C062FF07C081E080934D01C1
:1010C00010924F018DEF09C080915001181614F451
:1010D000815003C0882319F08F5F8093500121FF56
:1010E0000CC080914E01811110C089EF8093510195
:1010F00081E080934E0187E062DAC11106C08091E1
:101100004E01811102C010924D0111FF2BC0809140
:10111000F000843039F51092F500809141019091F2
:1011200042019C01205F3F4F3093E5002093E40093
:1011300020914301309144013093E7002093E60071
:1011400023E02093F4002093F3001092F00020910C
:101150004F01211107C02DEF2093F3009093E5007C
:101160008093E4008091C60012FF18C0811110C066
:1011700089E025DA60E181E883D48DE380939901E9
:1011800060E181E87DD48CE38093990181E003C024
:101190008230C1F483E08093C60014C0813011F422
:1011A00082E0F9CF833071F41092C6006FEF81E8CE
:1011B00067D48DE3809399016FEF81E861D48CE36C
:1011C00080939901DF91CF911F910895CF92DF9283
:1011D000EF920F931F93CF936C01C62F8091DD0088
:1011E0009091DE0097FF06C0482F419570E0C60140
:1011F000089608C0009739F070E0482F9601281B28
:10120000390BC9011CDD80916000813031F46C2FF5
:1012100070E0E12C06E310E011C0823011F0843060
:1012200031F46C2F70E0E12C0EE210E007C0833047
:1012300049F46C2F70E0E12C06E210E028E048E071
:10124000C601CAD7CF911F910F91EF90DF90CF9039
:1012500008952F923F924F925F926F927F928F925A
:101260009F92AF92BF92CF92DF92EF92FF920F9335
:101270001F93CF93DF9300D01F92CDB7DEB720919D
:10128000E1003091E2003B832A83C90123E0969577
:1012900087952A95E1F7382F3F73F32E8A819B813A
:1012A00087709927332349F02FEF230F48EF5FEF23
:1012B000481B590B5B834A8309C0EE27FF27E81BB5
:1012C000F90BFB83EA83EF2B31F020E0F1E1FF0D16
:1012D000F983F22E02C020E12983312C5981F516C1
:1012E00008F09FC08091DD009091DE0097FF02C062
:1012F00081E003C0892B21F08FEF8F0D8F73382E83
:101300008F2D8F7390E0AC0146505F4F5A01FA0168
:1013100080818170282ECC24C394D12C832D90E021
:101320009C0126503F4F49014A805B8038E0430EC4
:10133000511CF501808190E00C2C02C09595879599
:101340000A94E2F780FF5DC04091DD005091DE001D
:10135000360183E0660C771C8A95E1F757FF0FC0D2
:10136000F401808190E00C2C02C0959587950A9439
:10137000E2F780FD04C04195B301C20160DC209119
:10138000DD003091DE001216130694F4F401808122
:1013900090E00C2C02C0959587950A94E2F780FDA9
:1013A00007C0422FB3018A819B81821B930B47DCCC
:1013B000F501808190E096012150310902C0959598
:1013C00087952A95E2F7E12C80FD03C00EE110E03D
:1013D00002C00EE310E028E048E0B3018A819B815F
:1013E000FBD6222071F0F1E0CF1202C060E005C010
:1013F0006EEF6C0D660F660F660F8A819B81E6DECD
:10140000212C2FEFC21AD20A38E0C316D10409F0FA
:1014100090CF4A815B81485F5F4F5B834A83F3943F
:101420005DCF0F900F900F90DF91CF911F910F9193
:10143000FF90EF90DF90CF90BF90AF909F908F90F4
:1