:100000008EC0A8C0A7C0A6C0A5C0A4C0A3C0A2C0DF
:10001000A1C070C4E1C49EC09DC09CC09BC0777746
:1000200077777767570700000000FF0000000000A7
:100030007ECFFF7E00003C7EE7FFFFFF7E3C7776B1
:1000400075707767570700183C66663C1800589C27
:100050003C3E3E137FB7B77F533E9E5C1C188063C7
:10006000E097F00FE80FEC1F1E17BF3B3FDA3FDAB7
:10007000BF7B1E37EC1FE897F067E00780030000A6
:100080000000E038E0312033202D607D307CB06C02
:10009000F0FC60FCC07D806D00C800000000000026
:1000A0000000000C200C201960BD30F8B0FCF03CC2
:1000B000607CC07D806100C0000000000000000086
:1000C00000000000000010009058B07418FE58F0B6
:1000D00078FE30F0E03EC01C000000000000000090
:1000E0000000000C107C906CB06C187E583E78308C
:1000F00030BEE0FEC0FE006C000C000000000000FE
:1001000000000000003020B820FD60E1303CB03C31
:10011000F0E060FCC0BD8039000000000000112448
:100120001FBECFE5D2E0DEBFCDBF10E0A0E6B0E05D
:10013000EEEEFCE102C005900D92A23CB107D9F7AA
:1001400021E0A2ECB0E001C01D92A33AB207E1F7B2
:1001500059DACBCD55CFCF93C82F2DE036E649E104
:1001600050E06091C7007091C8008091C9009091E3
:10017000CA0033DDDC01CB01815A9C40A149B34C5C
:10018000BC01CD01882799276093C7007093C800F0
:100190008093C9009093CA002C2F30E040E050E0DB
:1001A00055DD862FCF91089590E120E030E08770F3
:1001B00067E8379887B966B9369A3699FECF44B161
:1001C00055B1240F351F9150A1F7C90124E0969530
:1001D00087952A95E1F708952F923F924F925F926B
:1