:100000008EC0A8C0A7C0A6C0A5C0A4C0A3C0A2C0DF
:10001000A1C070C4E1C49EC09DC09CC09BC0777746
:1000200077777767570700000000FF0000000000A7
:100030007ECFFF7E00003C7EE7FFFFFF7E3C7776B1
:1000400075707767570700183C66663C1800589C27
:100050003C3E3E137FB7B77F533E9E5C1C188063C7
:10006000E097F00FE80FEC1F1E17BF3B3FDA3FDAB7
:10007000BF7B1E37EC1FE897F067E00780030000A6
:100080000000E038E0312033202D607D307CB06C02
:10009000F0FC60FCC07D806D00C800000000000026
:1000A0000000000C200C201960BD30F8B0FCF03CC2
:1000B000607CC07D806100C0000000000000000086
:1000C00000000000000010009058B07418FE58F0B6
:1000D00078FE30F0E03EC01C000000000000000090
:1000E0000000000C107C906CB06C187E583E78308C
:1000F00030BEE0FEC0FE006C000C000000000000FE
:1001000000000000003020B820FD60E1303CB03C31
:10011000F0E060FCC0BD8039000000000000112448
:100120001FBECFE5D2E0DEBFCDBF10E0A0E6B0E05D
:10013000EEEEFCE102C005900D92A23CB107D9F7AA
:1001400021E0A2ECB0E001C01D92A33AB207E1F7B2
:1001500059DACBCD55CFCF93C82F2DE036E649E104
:1001600050E06091C7007091C8008091C9009091E3
:10017000CA0033DDDC01CB01815A9C40A149B34C5C
:10018000BC01CD01882799276093C7007093C800F0
:100190008093C9009093CA002C2F30E040E050E0DB
:1001A00055DD862FCF91089590E120E030E08770F3
:1001B00067E8379887B966B9369A3699FECF44B161
:1001C00055B1240F351F9150A1F7C90124E0969530
:1001D00087952A95E1F708952F923F924F925F926B
:1001E0006F927F928F929F92AF92BF92CF92DF9247
:1001F000EF92FF920F931F93CF93DF93CDB7DEB7AC
:1002000067970FB6F894DEBF0FBECDBF6C015B01E0
:10021000F42E3801803891050CF091C0842F90E0C5
:1002200044275527481B590B4C155D050CF087C01A
:10023000603471050CF083C0D7FE06C05C2D51956B
:10024000598BC12CD12C01C0198AA601480F591F06
:10025000413851051CF030E8F32EFC18B7FE0DC0F4
:10026000B194A194B10853E0B594A7945A95E1F7DD
:1002700011E01A0DA12CB12C01C010E0822E869441
:1002800086948694A501420F511D413451054CF0CE
:10029000950143E0359527954A95E1F708E0021B63
:1002A00001C0082D212F30E03B8B2A8B3989232E6A
:1002B000312C912CAC01415051095D8B4C8B8F2D11
:1002C00090E09C01221933093F8B2E8B1017B8F553
:1002D000412E512CB2014A895B89641B750B83E066
:1002E000660F771F8A95E1F76A0D7B1DC601E0DB7B
:1002F00049894F15E8F4242F30E0E11002C0C9010C
:1003000004C08C899D89821B930BB40155DC840D3C
:10031000951DF301E80FF91FE49122193309A1E0BB
:10032000B0E0AC0FBD1FA20FB31FEC934F5FE1CF46
:100330006E897F89CE010196D4DB1F5FC7CF679698
:100340000FB6F894DEBF0FBECDBFDF91CF911F91E6
:100350000F91FF90EF90DF90CF90BF90AF909F9064
:100360008F907F906F905F904F903F902F90089567
:10037000282F30E0C90166E170E01EDCFC01E95A7B
:10038000FE4F83E0848781E1818B17868081918194
:1003900001969183808308959C018091630184304C
:1003A00059F080917901843051F080918F0184302F
:1003B000E1F482E090E005C080E090E002C081E0DE
:1003C00090E066E170E0F8DBFC01E95AFE4F83E063
:1003D000220F331F8A95E1F7318320831382128223
:1003E00081E08787108A118A148608956F927F9220
:1003F0008F929F92AF92BF92CF9